:060000000A128A110C280F
:10000800FE00030EF3000A08F4000A128A115028B1
:100018000A128A110F28F601F701F80183010A1262
:100028008A11872801308316031788008901013057
:10003800831603138500073086008701880189012C
:1000480083120313850186018701890188018B17B3
:100058000B17831603130C17831203130C130730A3
:100068008316031396008B150B100F088F39603811
:100078008F000F149F131F129F12831203131F0860
:100088003F3940389F00C3309F051F141030F500DA
:10009800F50B4C2800000800831203130C1F552889
:1000A80056285E280C131E08F2007208F70077081D
:1000B8008700F6010B1C612862288028061C652829
:1000C80066286A286300F601F60A7F28861C6D28D0
:1000D8006E287028F6017F28061D732874287F284B
:1000E8007708F2007208F00078080A128A11AB202B
:1000F8000A128A116E280B1074088A00730E830086
:10010800FE0E7E0E09000A128A1116200A128A11A2
:10011800831203139F18912892289C280F3083126A
:100128000313A000A00B96289928831203139F1489
:1001380078080A128A11C0200A128A11831203133E
:100148008800760889008C280A128A110C28F10088
:100158007108831203178D0070088C00831603172B
:100168008C130C158B1355308D00AA308D008C1410
:100178000C110B108B170800F50075088312031774
:100188008D00831603178C130C08831203170C08B1
:0201980008005D
:08400000FF3FFF3FFF3FFF3FC0
:04400E00D420FF3F7C
:00000001FF
